:020000040800F2
:10000000180C002035020008153100086D26000884
:100010004F2C0008191B0008DD3C00080000000000
:1000200000000000000000000000000099360008F9
:10003000291E00080000000081350008AD370008C7
:100040004F0200084F0200084F0200084F0200084C
:100050004F0200084F0200084F0200084F0200083C
:100060004F0200084F0200084F0200084F0200082C
:100070004F0200084F0200084F0200084F0200081C
:100080004F0200084F0200084F0200084F0200080C
:100090004F0200084F0200084F0200084F020008FC
:1000A0004F0200084F0200084F0200084F020008EC
:1000B000113800084F0200084F0200084F020008E4
:1000C0004F0200084F0200084F0200084F020008CC
:1000D0004F0200084D3A0008CD3A00084F020008D0
:1000E0004F0200084F0200084F02000800F002F81B
:1000F00000F090F80AA090E8000C82448344AAF132
:100100000107DA4501D100F085F8AFF2090EBAE82F
:100110000F0013F0010F18BFFB1A43F0010318473B
:1001200088550000A8550000103A24BF78C878C14F
:10013000FAD8520724BF30C830C144BF04680C60ED
:10014000704700000023002400250026103A28BF35
:1001500078C1FBD8520728BF30C148BF0B60704739
:100160006E2900F0AA82702900F00386662904F047
:100170000485652904F00185672904F0FE8461295E
:10018000AFF3008003681B0A28BF41F08001692992
:1001900000F0C880642900F0C580752900F0C28095
:1001A0006F2900F09085782900F0CF85E92900F0CB
:1001B0002B85E42900F02885F52900F02585EF2915
:1001C00000F08D85F82900F0CE850368DB0928BF93
:1001D00041F08001632900F09386732900F098862E
:1001E000E32900F0A386F32900F0A88600207047D9
:1001F0001FB500F0F1FD04000020002104F02AF8F2
:10020000401C60600020002104F00EF8E0601FBD7B
:1002100010B510BD00F02CFF1146FFF7E9FF03F009
:1002200005FF00F053FF03B4FFF7F2FF03BC00F03B
:1002300097FF00000948804709480047FEE7FEE7AE
:10024000FEE7FEE7FEE7FEE7FEE7FEE7FEE7FEE786
:1002500004480549054A064B70470000B1370008BD
:10026000ED00000818060020180C002018080020D7
:10027000180800207CB51D4616460C00009001D0E1
:100280002044401E074B7B442A4669460190304675
:1002900000F03BFC05461CB10020694600F048FC1C
:1002A00028467CBDB10800000FB41CB5084B06AA57
:1002B0007B4469460090059800F027FC0446002026
:1002C000694600F035FC20461CBC5DF814FB0000BC
:1002D0007D08000070B5044685690068C10601D537
:1002E000302600E02026C00707D070BDD4E90121E8
:1002F00030469047206A401C20626D1EF6D570BDC6
:1003000070B5044685690078C00707D170BDD4E98F
:10031000012120209047206A401C20626D1EF6D5E6
:1003200070BD00002DE9F0410646002410687529D3
:10033000314616A510D000F02CF9002802DA404210
:1003400013A507E031688A0701D512A502E0490725
:1003500004D511A5012401E000F024F900210A22AE
:1003600006F1240709E0B0FBF2FCB0FBF2F302FB5C
:100370001C00303078541846491C0028F3D123461D
:100380002A463046BDE8F04100F03EB900000000CA
:100390002D0000002B000000200000002DE9F05F80
:1003A000894604464FF0000ADFF874B1FB44C0F8F8
:1003B00020A02046E1688847002874D0252806D070
:1003C000D4E901219047206A401C2062F1E7002611
:1003D0005F462046E16888472028054607DB312D27
:1003E00005D2781910F8200C08B10643F1E7B007E0
:1003F00001D526F00406C4F81CA00027C4F818A0F4
:100400002A2D09D0284603F0FBFC38B304EB8708FB
:10041000303DC8F8185019E059F8041B204604EB89
:1004200087029161E1688847012F054618D1E0698C
:10043000002820DA26F020061DE0D8F8180000EB8E
:10044000800005EB40003038C8F818002046E1680D
:100450008847054603F0D4FC0028EED1012F0AD0CE
:100460002E2D08D12046E16888477F1C0546022FC3
:1004700046F02006C4DBA069002803DA404246F0BB
:100480000106A061F00701D026F010066C2D0BD0FC
:10049000682D09D04C2D39D06A2D35D0742D35D02A
:1004A0007A2D33D016E038E0E1682F4620468847A1
:1004B000B842054609D16C2F26D04FF48060E16820
:1004C000064320468847054604E06C2F1AD04FF4B7
:1004D000807006430DB3A5F14100192802D82035DC
:1004E00046F400664A462946204626604E46FFF7F7
:1004F00037FE80B101280BD0F61D26F0070000F171
:10050000080956E74020E4E78020D8E70020D6E736
:1005100006F104094DE7284652E7206ABDE8F09F3E
:100520002052000030B505460B462A4613F8014B11
:1005300012F8010B08B1A042F8D01CB1002802D07B
:100540006D1CF1E7284630BD4FF000020429C0F0D1
:10055000128010F0030C00F01984CCF1040CBCF1F3
:10056000020F18BF00F8012BA8BF20F8022BA1EB47
:100570000C0100F00BBC5FEAC17C24BF00F8012B2A
:1005800000F8012B48BF00F8012B704770477047F7
:10059000704709684A0501D540B27047C905FCD5C6
:1005A00000B2704709684A0501D5C0B27047C90555
:1005B000FCD580B2704770B50C460546012A05D0BF
:1005C0002878800600D5EA69002302E0012305E0CF
:1005D0005B1C934202D2E05C0028F9D1A869E618BE
:1005E000C01AA861286A184428622846FFF772FEDC
:1005F00004E0D5E9012114F8010B9047B442F8D387
:100600002846FFF77DFE70BD2DE9F0470D4699465F
:100610009246044600F124080168880604D5E06982
:1006200021F01001216000E00120A84201DD471BFC
:1006300000E00027A1697A1902EB0900081AA061FD
:100640002078C00602D42046FFF744FE002608E0CA
:10065000D4E901211AF806009047206A401C761C54
:1006600020624E45F4DB2078C0060AD52046FFF70D
:1006700031FE06E0D4E9012130209047206A401C79
:100680002062381EA7F10107F4DC07E0D4E901215C
:1006900018F805009047206A401C2062281EA5F12A
:1006A0000105F3DC2046FFF72BFE2078000602D57B
:1006B0000220BDE8F0870120FBE711680268006AAC
:1006C000530501D508700AE0D30501D5088006E07E
:1006D000130603D5C217C1E9000200E0086001203B
:1006E000704770472DE9FF4F0C461E464FF0FF370D
:1006F0008BB0D2E90001DDF860800A908A46C1F330
:100700000A5505B93D46002108464FF00000BAF1F0
:10071000000F00F4400005DA00EB80004FF44001C8
:1007200001EA50004FEA9059B9F1010F00DDB946D6
:100730000A9850EA4A000ED044F61050A5F2FF3550
:1007400045432F14B8F1000F1ED07542291E1EDD3F
:10075000C9F100021CE0B8F1010F4FF0000001D018
:10076000302103E0F24305E02154401CB042FBDBA2
:1007700030460022002121540B99C1F80880C1E9BC
:1007800000200FB0BDE8F08FBD1B6D1CDEE74A46B0
:1007900000DA694206A800F0D5FB06AB93E8070033
:1007A00003AB83E8070050460A9900F0E0FC8DE8AF
:1007B0000700A0F500501F3800900398002D0ADDB7
:1007C00042F21F014A460844002303A903906846E9
:1007D00000F049FF09E0A0F500504A461F38002309
:1007E00003A90390684600F053FF8DE8070000045A
:1007F000000C03D04FF0FF30410800E01046B8F184
:10080000000F03D00022009215461EE0751E05D48D
:1008100000F0E6FA303262556D1EF9D5B34601227A
:10082000084302D000227F1C04E02078302801D148
:1008300000227F1E002A099784D01DE0112D07DABF
:1008400000F0CEFA303262556D1C50EA0102F5D14B
:10085000084302D00098C8B10EE00021681E05E0F0
:10086000235C625C63542254401E491C8142F7DBC6
:10087000AB46A81B401E0990002004F80B000B9803
:10088000099AC0F80880C0E9002B7AE711264FF0DA
:10089000000857E72DE9F04F88460446D21D22F0A4
:1008A000070191B0D1E90001CDE90A0103F094FA02
:1008B00002460B98C00F01D02D2007E02068810769
:1008C00001D52B2002E0202101EAC000032A099073
:1008D00001D0072A05DB03464146204600F0C6FA50
:1008E0000BE12078800601D5E06900E00620B8F130
:1008F000650F814606D0B8F1660F18D0B8F1670FC2
:1009000070D131E00020B9F1110F009001DB11230B
:1009100001E009F101030AAA01A90CA8FFF7E2FE10
:10092000DDE90C70002609F10105834647E001204E
:100930004B4600904FF000470AAA01A90CA8FFF708
:10094000D1FEDDE90DB00C995D46002610B909F124
:1009500001000D18B9EB050003D4C0F1FF3609F111
:100960000105A5EB09002BE0B9F1010F01DA4FF009
:1009700001090020B9F1110F0090484601DD112353
:1009800000E003460AAA01A90CA8FFF7ABFEDDE9C7
:100990000C704D4600268346207800070AD4AB45EC
:1009A00000DA5D4601A8012D04DD411911F8011C92
:1009B000302907D04F4502DA17F1040F04DA01207D
:1009C00082460FE06D1EEEE7002F02DCED1B3E4479
:1009D00003E0781CA84200DD7D1CB81B00F1010A71
:1009E0004FF000472078000703D4AA4501DB4FF001
:1009F000FF3A0021B7F1004F0DF143088DF8431085
:100A000024D002202B23002F01DA7F422D230A213C
:100A1000021EA0F1010000DC5FB197FBF1FC97FB27
:100A2000F1F201FB1C7C17460CF1300C08F801CDEB
:100A3000EEE7A8F1010003702188090501D54521E1
:100A400000E06521A0F1010800F8011C09980FA938
:100A5000A1EB0807FF1D00B10120411901EBEA706D
:100A6000A1693844081A401EA0612078C00602D44B
:100A70002046FFF72FFC099828B1D4E901219047BF
:100A8000206A401C20622078C00622D52046FFF74D
:100A900021FC1EE0002E04DBB34502DD01A8805DD1
:100AA00000E03020D4E901219047206A401C2062F8
:100AB000761CAAF101005FEA000A0AD100F08CF965
:100AC000C0680168405CD4E901219047206A401C5D
:100AD0002062281EA5F10105DCDC07E0D4E9012134
:100AE00018F8010B9047206A401C2062381EA7F1BD
:100AF0000107F3DC2046FFF703FC032011B041E6B9
:100B000001694A1C02610878704700B58FB0CDE9D1
:100B100001310021059105497944CDE903101146C1
:100B20006846FFF73BFC0FB000BD0000E5FFFFFF8C
:100B30000A6802F8010B0A607047D1E900239A4263
:100B400002D2531C0B601070704700002DE9FF5F4C
:100B500015468A460446DFF8AC80F8440027D8E9F9
:100B600000103E46CDE9001010E03AF816106A4633
:100B700002A800F059FA411C07D02178890603D554
:100B8000E269391891420DD80744761C2078800616
:100B900002D5E069B84205DDAE42E6DB3AF8160060
:100BA0000028E2D1A069C01BA0612046FFF792FB9C
:100BB000D8E90010CDE90010002017E03AF818102D
:100BC0006A4602A800F030FAB0F1FF3F81460BD030
:100BD00000250DF1080B05E0D4E901211BF8050003
:100BE00090476D1C4D45F7D308F10100B042804697
:100BF000E4DB206A384420622046FFF781FBBDE831
:100C0000FF9F0000864A00002DE9F0418046D21D7A
:100C100022F007020025D2E90002F52915A614D01A
:100C2000011E72F1000106DA0023D0EB030063EB32
:100C3000020211A608E0D8F800108B0701D50FA614
:100C400002E0490701D50EA601251146002408F14E
:100C5000240704E000F0C4F830323A55641C50EA2E
:100C60000102F7D12B46324621464046BDE8F0410D
:100C7000FFF7CABC000000002D0000002B000000A0
:100C80002000000030B4002100F1240408E002F04C
:100C90000705D208303542EA4372DB086554491C27
:100CA00052EA0305F3D10468002310A2250707D5F3
:100CB000A40600D421B1C46901230DA2641EC4613D
:100CC00030BCFFF7A1BC10B5044621461068FFF701
:100CD00069FC02462046BDE810400023D2E7D21D41
:100CE00022F00701D1E90023CCE70000000000005A
:100CF00030000000F0B40D460188090502D5214CF2
:100D00007C4402E01F4C7C440E34002100F1240698
:100D100008E002F00F071209E75D42EA03721B09BF
:100D20007754491C52EA0307F3D1027800231207D3
:100D300004D5702D06D009B1022311342246F0BC2F
:100D4000FFF762BC01231034F8E770B504460D4686
:100D500021461068FFF726FC024629462046BDE8DA
:100D600070400023C6E7D21D22F00703D3E9002319
:100D7000C0E70368126843F0200303600823C361DF
:100D80000023B7E7E84800004FF0000200B5134623
:100D900094469646203922BFA0E80C50A0E80C509B
:100DA000B1F12001BFF4F7AF090728BFA0E80C504C
:100DB00048BF0CC05DF804EB890028BF40F8042B45
:100DC00008BF704748BF20F8022B11F0804F18BFB2
:100DD00000F8012B7047000000487047D80500203C
:100DE00030B5B0F10A024FEA900E71F100034EEAFD
:100DF000817EB0EB0E0061EB91014FEA101E4EEACE
:100E0000017E10EB0E0041EB11114FEA102E4EEA5D
:100E1000016E10EB0E0041EB11214FEA104E4EEA2D
:100E2000014E10EB0E0041EB1141401841F1000161
:100E30004FEAD00040EA41704FEAD10110EB800543
:100E40004FEA810444EA907444EB01046D1944EBC9
:100E50000404521BA3414FF0000348BF0A3200D5DF
:100E600030BD401C41F1000130BD00002DE9F041D2
:100E70001F46044603260168072A01F4006004DBCC
:100E800008B116A505E016A503E008B115A500E018
:100E900015A521F010002060A069C01EA0610FB14F
:100EA000401EA0612046FFF715FA4FB1D4E9012199
:100EB00038469047206A401C2062C01C206206E031
:100EC000206AFAE7D4E9012115F8010B9047761E54
:100ED000F8D22046FFF714FABDE8F0814E414E00EB
:100EE0006E616E00494E4600696E660010B543693A
:100EF00013B1AFF3008001E0FFF75DFB012010BDEF
:100F0000127800F124010A7000224A700122EDE7F4
:100F100011684FF0FF32E9E710B5436913B1AFF341
:100F2000008001E0FFF712FE012010BD128800F1E1
:100F3000240182840022C2840122EDE711684FF06F
:100F4000FF32E9E72DE9F047814616468AB0354879
:100F500078440DC88DE80D0032487844801C03ACFD
:100F60000DC884E80D0041F69B300844372190FB02
:100F7000F1F290FBF1F5A5F1800501FB12041B3C99
:100F800002D56442012000E00020DFF898A08046EE
:100F90000027FA44AAF1BE0A0EE0E0070AD0324662
:100FA000684607EB470101230AEB810100F070FB63
:100FB0008DE8070064107F1C002CEED1194F7F4490
:100FC000AE3F19E0E80715D007EB04100DF1180A41
:100FD00090E80E008AE80E00C068F04201D198192E
:100FE00008903246012306A903A800F051FB03AB89
:100FF00083E807006D10641C002DE3D14FF001035E
:1010000032466946B8F1000F03A802D000F02BFB6E
:1010100001E000F03DFBC9E90001C9F808200AB071
:10102000BDE8F0873C47000070B516460C46054603
:1010300000F044F8036893F80101012806D0FF2C62
:101040000FD8185D68B101202C7070BDD3F807016E
:101050003246214603F2071303442846BDE8704098
:1010600018474FF0FF3070BD00487047B8050020AA
:101070007546FFF7F9FFAE4605006946534620F076
:101080000700854618B020B5FFF7E2F8BDE820401C
:101090004FF000064FF000074FF000084FF0000B34
:1010A00021F00701AC46ACE8C009ACE8C009ACE8E7
:1010B000C009ACE8C0098D467047000010B5FFF7C5
:1010C0008BFE001D10BD00BF8D31000010B5044621
:1010D000AFF300802046BDE81040FFF7A4B8000041
:1010E0004FF0013C50F8042B51F8043B9A4221D1B7
:1010F000A2EB0C03934313EACC1317D150F8042B43
:1011000051F8043B9A4215D1A2EB0C03934313EA26
:10111000CC130BD150F8042B51F8043B9A4209D15F
:10112000A2EB0C03934313EACC13DBD04FF0000087
:10113000704700BFD01A01BAB1FA81F101F018016D
:1011400022FA01F0CB40C1F12001DBB2C0B2C01ADB
:101150002CFA01F3D11A914311EAC311E6D1704779
:1011600001491820ABBEFEE72600020070475FEA87
:10117000400C08BF91F0000F4FEA8C234FEAC122C8
:1011800043EA51514FEA1C5018BF00F5F0404FEAB6
:10119000300018BF41F000415FEA6C5C00F029802C
:1011A000BCF1FF3F08BF40F080407047130C06BF02
:1011B00012044FF0100C4FF0000C130E04BF12027B
:1011C0000CF1080C130F04BF12010CF1040C930F67
:1011D00004BF92000CF1020CD30F04BF52000CF1BB
:1011E000010C11464FF00002A0F11F00A0EB0C0013
:1011F000704711F0004F08BF704731F000413FF4D5
:10120000D5AF0B0C06BF09044FF0100C4FF0000CCB
:101210000B0E04BF09020CF1080C0B0F04BF0901EF
:101220000CF1040C8B0F04BF89000CF1020CCB0FE6
:1012300004BF49000CF1010CCCF12003A0EB0C0021
:1012400022FA03F302FA0CF241EA030100F1010071
:10125000704720F07F4C80EA030023F07F47ACEB1F
:10126000070303F57C5300F0004003F1FF032DE971
:1012700080494FEA154B09B44FEA144325EA0B4E57
:1012800024EA03480FF2042606EB132749083E78A8
:101290005FEA320203FB0667C7F5000707FB06F6A5
:1012A0004FEA54374FEAD64606F1020607FB066CB2
:1012B000CCF1005C4FEA1C472CEA074C07FB06F414
:1012C0000CFB06F504EB15464FEA961634BF0020DA
:1012D0004FF000404FEAD13706FB07FC4FEA1C4CA9
:1012E0000CFB0BF7D21B03FB0CF761EB07010CFBAC
:1012F0000EF7B0EB074072EB17420CFB08F734BF58
:10130000A2EB0742B2EB074261EB17414FEA0C44F4
:101310004FEA910706FB07FC4FEA1C4C0CFB0BF74E
:10132000B0EBC74072EB573203FB0CF734BFA2EBB4
:10133000C742B2EBC74261EB57310CFB0EF7B0EB83
:10134000C70072EB57720CFB08F734BFA2EBC70261
:10135000B2EBC70261EB5771039F4FEA816141EA2B
:10136000921104EBCC044FEAD1374FEA826206FBBC
:1013700007FC42EA90124FEA80604FEA1C4C0CFBDB
:101380000BF7D21B03FB0CF761EB07010CFB0EF70D
:10139000B0EB074072EB17420CFB08F734BFA2EB2F
:1013A0000742B2EB074261EB17414FEA8C554FEA17
:1013B000910704EB9C2406FB07FC4FEA1C4C0CFB3A
:1013C0000BF7B0EBC74072EB573203FB0CF734BF9F
:1013D000A2EBC742B2EBC74261EB57310CFB0EF7F1
:1013E000B0EBC70072EB57720CFB08F734BFA2EBEF
:1013F000C702B2EBC70261EB577115EB4C254FEA00
:10140000816141EA92114FEA82624FEAD13742EAA2
:10141000901206FB07FC44F100044FEA80604FEA9B
:101420001C4C0CFB0BF7D21B03FB0CF761EB070109
:101430000CFB0EF7B0EB074072EB17420CFB08F702
:1014400034BFA2EB0742B2EB074261EB174115EB49
:101450001C154FEA813141EA92414FEA823242EA59
:1014600090424FEA80304FEA0C7644F1000448EA9B
:1014700003434EEA0B484FF0000EB2EB080C71EB41
:10148000030724BF624639464EEB0E0E4FF0000BA9
:101490000018524149414BEB0B0BB2EB080C71EBBE
:1014A00003077BF1000B24BF624639464EEB0E0E5C
:1014B0004FF0000B0018524149414BEB0B0BB2EBC4
:1014C000080C71EB03077BF1000B24BF6246394621
:1014D0004EEB0E0E51EA020718BF46F0010616EB5E
:1014E0000E7655F1000254F1000103D5BDE88901E3
:1014F000BDE80088BDE88901BDE80048B619524141
:1015000041EB0101A3F10103704780807F7E7D7C68
:101510007B7A7978777676757473727171706F6E85
:101520006E6D6C6C6B6A6A69686867666665646430
:10153000636362616160605F5F5E5E5D5D5C5C5BBA
:101540005B5A5A5959585857575656555555545429
:10155000535352525251515050504F4F4F4E4E4D87
:101560004D4D4C4C4C4B4B4B4A4A4A4949494848D3
:101570004847474747464646454545444444444313
:1015800043434342424242414141002B9C4630D4B6
:1015900077002BD01CB54FEA370703B44FF010008B
:1015A0004FF01001BAF1000F06D0BCF1000FDCBF04
:1015B00040F0080040F008014FF000000FBCBDE80B
:1015C00010400BF1010BBBF1010F08BF5FEA1707D9
:1015D00022BF12F1010211F101014FF0004143F16C
:1015E000000300F0004043EA00007047F9D35708B9
:1015F000D0E746EA064613F1400F4FEA16461FDDD4
:1016000013F1200FDFBF16430A46002120335B424F
:10161000BED0C3F1200746EA064602FA07F74FEAB2
:10162000164646EA0706C3F1200722FA03F201FA3A
:1016300007F721FA03F14FF0000342EA0702A7E798
:1016400046EA020646EA06464FEA164646EA01061A
:10165000BCBF46EA0646360C4FF000034FF00002CE
:101660004FF0000194E72DE9804C9A46934670B400
:1016700091E8380007C831EA400C48BF34EA430C0F
:1016800003D5FFF7E6FDFFF780FFF0BCBDE8008C57
:101690002DE9804C9A46934670B491E8380007C80B
:1016A00010F0804F08BF13F0804F03D100F005F811
:1016B000FFF76BFFF0BCBDE8008C20F07F4780EAAD
:1016C000030023F07F4C07EB0C03A3F57C5300F0E1
:1016D0000040A3F1FE0392F0000F00F0B38095F0FC
:1016E000000F00F077802DE901494FEA11404FEAE1
:1016F000144621EA004800FB06FC24EA064708FBE2
:1017000006F607FB08F800FB07F718EB06484CEB5A
:10171000164C4FEA124B18EB07484FEA15464CEBB4
:10172000174022EA0B4E0BFB06FC25EA06470EFB90
:1017300006F607FB0EFE0BFB07F71EEB064E4CEB07
:10174000164C4FF000061EEB074E4CEB174B18EBF8
:101750000B0840F1000018EB0E0B58EB000840F1AD
:1017600000008F1A4FF000013CBFC943661B14BF35
:10177000B5EB040C00213CBFC943F61B4FEA1744EC
:101780004EEA8E0E27EA04454FEA1C4704FB076227
:101790002CEA074C05FB07F70CFB05F604FB0CFCD9
:1017A00016EB074642EB174216EB0C4642EB1C4287
:1017B0001BEB060658EB0202414146EA9E0601D5A4
:1017C000BDE80189B619524141EB0101A3F10103C2
:1017D000BDE801894FEA14454FEA114724EA05465E
:1017E00021EA074C05FB07F406FB07F70CFB06F1A3
:1017F00005FB0CFC11EB074144EB17444FEA124781
:1018000011EB0C4144EB1C4422EA074C05FB07F2A8
:1018100006FB07F70CFB06F605FB0CFC16EB074670
:1018200042EB174216EB0C4642EB1C456A1854F18A
:10183000000148BF7047B619524141EB0101A3F1C5
:101840000103704795F0000F37D04FEA11424FEA7D
:10185000144721EA024624EA074C02FB07F106FB83
:1018600007F70CFB06F402FB0CFC14EB074441EBFE
:1018700017414FEA154714EB0C4441EB1C4125EA94
:10188000074C02FB07F506FB07F70CFB06F602FB0D
:101890000CFC16EB074645EB174516EB0C4645EBE3
:1018A0001C42121951F1000148BF7047B61952414C
:1018B00041EB0101A3F1010370474FEA14454FEAE0
:1018C000114724EA054621EA074C05FB07F106FB10
:1018D00007F70CFB06F24FF0000605FB0CFC12EBC1
:1018E000074241EB174112EB0C4251EB1C4148BF40
:1018F0007047921841EB0101A3F10103704700000A
:101900001C480078022806D100201B4908601B49AA
:10191000C1F8800170471748007830B1002016499F
:1019200008601649C1F88001F4E7154800780228DC
:1019300007D100201049086001201049C1F880013A
:10194000E8E71048007828B90F48007810B90F4828
:10195000007830B10120084908600849C1F88001C9
:1019600005E00020044908600449C1F8800100BF77
:10197000D0E700000800002084812142008021423D
:10198000090000201C0000201D0000201E00002077
:1019900010B5044657480078012800D010BD412CEE
:1019A00006D0422C12D0432C2CD0442C0DD163E015
:1019B0005048007808B9012000E000204D49087027
:1019C00000204D4908704D4908708FE04A48007862
:1019D00038B90120484908704849087001F0DEFB19
:1019E0000FE046480078401C4449087008460078DB
:1019F000062804DD0020404908704049087001F0C5
:101A0000CDFB73E03C480078012834D13B48007896
:101A100007282FD2DFE800F02E040D161C22280024
:101A20004FF07E513648006802F084FD344908606A
:101A300020E04FF07E513348006802F07BFD3149D1
:101A4000086017E030480078401C2F49087011E00A
:101A50002E480078401C2D4908700BE02C48007877
:101A6000401C2B49087005E02A480078401C294991
:101A7000087000BF00BF39E01F480078012834D14A
:101A80001E48007807282FD2DFE800F02E040D163C
:101A90001C2228004FF07E511948006802F0F8FF20
:101AA0001749086020E04FF07E511648006802F0A8
:101AB000EFFF1449086017E013480078401E1249F0
:101AC000087011E011480078401E104908700BE0C2
:101AD0000F480078401E0E49087005E00D48007858
:101AE000401E0C49087000BF00BF00BF00BF00BF10
:101AF00054E7000009000020080000200100002039
:101B00001000002014000020180000201900002000
:101B10001A0000201B00002000BFFEE710B504469D
:101B200014B101201C4908701B48007808B31B48F9
:101B3000006838B11948001D006818B1174808300E
:101B40000068B0B90A2000F093F90020124908702B
:101B50001248006808B9012010BD1048001D006837
:101B600008B90220F8E70D480830006888B903205A
:101B7000F2E70A48006801280BD10848001D0068F8
:101B8000012806D1054808300068012801D1024922
:101B900008700020E0E70000400000201C81214286
:101BA00010B5002400F026F804E0601C84B2012087
:101BB00000F084F90E48006818B142F210708442B7
:101BC000F3DBC82C01DB012010BD002404E0601C05
:101BD00084B2012000F072F90548006808B9F02CC1
:101BE000F5DBF02C01DB0120EEE70020ECE7000044
:101BF0003081214208B50121082001F0D3FC4FF4C7
:101C00008050ADF8000048208DF8030003208DF8C7
:101C100002006946014800F003FC08BD000C0140C9
:101C200008B50121082001F0BDFC4FF48050ADF84B
:101C3000000010208DF8030003208DF80200694693
:101C4000014800F0EDFB08BD000C01402DE9F84F04
:101C500000F0AFF800F060F8FFF7A2FFCC2000F032
:101C6000B5F8BE2000F0B2F800F092F8834600F01C
:101C70008FF80446072C08DDE043C4B26FEA0B007E
:101C800000F0FF0B4FF0000A01E04FF0010AA146FF
:101C90004FEA09200FFA80F909EB0B000FFA80F9DF
:101CA000484602F097FD009002F018FC074600221B
:101CB000084B02F015FB054602F0E2FA0FFA80F934
:101CC000BAF1000F02D04846BDE8F88FC9F1000014
:101CD00000B2F9E70000E43F08B50121082001F057
:101CE00061FC4FF48050ADF8000010208DF8030027
:101CF00003208DF802006946064800F091FB4FF47E
:101D00008051044800F06BFC00F006F8FFF748FF34
:101D100008BD0000000C014010B5FFF781FF002056
:101D2000064908604FF42F7000F0C8F801200449FC
:101D3000C1F8B0013C2000F0C1F810BDB0812142D3
:101D40000080214210B5FFF76BFF00200E490860AC
:101D5000022000F0B3F801200C49C1F8B001FFF7F0
:101D600049FF0C2000F0AAF807488038006808B145
:101D7000012400E00024322000F0A0F80CB1012082
:101D800010BD0020FCE70000B0812142008021420C
:101D900070B50026012508E0FFF7D4FF0446E001F6
:101DA00040EA6600C6B2681CC5B2082DF4DD3046B4
:101DB00070BD10B5FFF7B0FFFFF7F2FECC2000F0CA
:101DC00005F8442000F002F810BD000070B504468C
:101DD000FFF726FF012520E004F0010664106EB134
:101DE00000200F490860022000F068F801200D492A
:101DF000C1F8B0013C2000F061F80CE00020084977
:101E000008603C2000F05AF801200649C1F8B001F2
:101E1000022000F053F8681CC5B2082DDCDD70BD4F
:101E2000B0812142008021427047000010B56FF060
:101E3000040001F0A7FC0A4800680A49B0FBF1F071
:101E4000094908700846007800EB4001C1EBC0105A
:101E50004FF6FF7101EAC0000449088010BD000080
:101E60002C00002000127A005600002058000020AC
:101E70000146114A12884A434FF0E0235A6100227A
:101E80009A611A46126942F001021A6100BF4FF0CE
:101E9000E022106900F001021AB100F48032002A39
:101EA000F5D04FF0E022126922F001024FF0E0235A
:101EB0001A6100229A617047580000200146114AB9
:101EC00012784A434FF0E0235A6100229A611A4681
:101ED000126942F001021A6100BF4FF0E02210695E
:101EE00000F001021AB100F48032002AF5D04FF060
:101EF000E022126922F001024FF0E0231A61002271
:101F00009A6170475600002070B5EF48007828B9F4
:101F1000EE48007810B9EE48007808B1012000E0E2
:101F200000200446EB480078022814D1EA480078E3
:101F3000022804D001F032F90220E7490870E7A234
:101F40000321022001F00EFA0020E6490870FF206C
:101F5000E549087070BDDF480078DF490870DD484A
:101F60000078012874D1E1480078DF490978884277
:101F700005D001F013F9DD480078DB490870DB4833
:101F80000078072876D2DFE800F075041A30415255
:101F90006400D7A20021012001F0E4F9D7480068CD
:101FA00002F09CFA05462A460B46D5A1D648FEF714
:101FB0007BF9D54A0821022001F05EFA5AE0D3A24B
:101FC0000021012001F0CEF9D348006802F086FA22
:101FD00005462A460B46CAA1CB48FEF765F9CA4A10
:101FE0000821022001F048FA44E0CCA2002101209F
:101FF00001F0B8F9CC480278CCA1C348FEF754F9F7
:10200000C14A0821022001F037FA33E0C9A20021B9
:10201000012001F0A7F9CA480278C4A1BA48FEF726
:1020200043F9B94A0821022001F026FA22E0C5A2AC
:102030000021012001F096F9C5480278BBA1B24801
:10204000FEF732F9B04A0821022001F015FA11E03A
:1020500015E0C0A20021012001F084F9C0480278F7
:10206000B2A1A948FEF720F9A74A0821022001F0F1
:1020700003FA00BF00BF00209A4908706AE7FF20FA
:1020800099490870B748007802284AD1B6480078C4
:1020900020B101F083F80020B3490870B348B0F9CB
:1020A00000000A2190FBF1F201FB1205AF48B0F9E4
:1020B000000090FBF1F62B463246ADA19248FEF7A8
:1020C000F3F8914A0621012001F0D6F9ABA20021D4
:1020D000012001F047F9AB480278ABA18A48FEF72E
:1020E000E3F8894A0621022001F0C6F9A8A20021DE
:1020F000022001F037F9A8480278A3A18248FEF730
:10210000D3F8814A0621032001F0B6F9A3A20021E9
:10211000032001F027F9A3A20021042001F022F9F5
:1021200018E770480078844207D001F037F80CB106
:10213000012000E000206B490870002C6BD08B4818
:10214000B0F9000002F046FB0646994902F060FA39
:1021500005466A480168284602F068FC05D295A247
:102160000021012001F0FEF81AE08048B0F90000DB
:1021700002F030FB06468E4902F04AFA05466648F0
:102180000168284602F052FB05D28DA200210120F1
:1021900001F0E8F804E08DA20021012001F0E2F84E
:1021A0007848007860490978884205DD8AA20021D4
:1021B000022001F0D7F810E07248007860490978F1
:1021C000884205DA87A20021022001F0CBF804E062
:1021D0007EA20021022001F0C5F86F4800785C491A
:1021E0000978884205DD82A20021032001F0BAF8B7
:1021F00010E0694800785A490978884205DA7FA2D8
:102200000021032001F0AEF804E070A200210320B9
:1022100001F0A8F89EE65448007820B100F0BEFF17
:102220000020514908705148B0F900000A2190FB84
:10223000F1F201FB12054D48B0F9000090FBF1F6F8
:102240002B4632464AA13048FEF72EF82E4A062188
:10225000012001F011F949A20021012001F082F8CA
:102260004848027848A12848FEF71EF8264A062169
:10227000022001F001F946A20021022001F072F8CB
:102280004548027840A12048FEF70EF81E4A062174
:10229000032001F0F1F841A20021032001F062F8CF
:1022A0003048007828B958A20021042001F05AF8DB
:1022B00008E02C480078012804D156A2002104200F
:1022C00001F050F800BF45E61C0000201D00002072
:1022D0001E000020080000202A000020B9D8BBFA08
:1022E000000000001F000020290000200100002045
:1022F000CCE5CEC2C9CFCFDE000000001000002028
:10230000252E31660000000078000020CCE5CEC20A
:10231000CFC2CFDE0000000014000020D0C4C2CA2B
:10232000C9CFCFDE00000000180000202530336444
:1023300000000000D0C4C2CACFC2CFDE000000003F
:1023400019000020D1AAD1F5C9CFCFDE00000000CE
:102350001A000020D1AAD1F5CFC2CFDE00000000C4
:102360001B00002009000020280000200A00002097
:1023700025642E256443202020000000CCE5CEC239
:10238000A3BA00000C0000202564202020200000BB
:10239000D0C4C2CAA3BA00000D000020D1AAD1F552
:1023A000A3BA0000C4A3CABDA3BAB4FDBBFA00001F
:1023B00000002041CCE5CEC2B9FDB8DF000000002E
:1023C000CCE5CEC2B9FDB5CD000000002020202014
:1023D0002020202000000000D0C4C2CAB9FDBFECFC
:1023E00000000000D0C4C2CAB9FDC2FD0000000058
:1023F000D1AAD1F5B9FDB8DF00000000D1AAD1F50E
:10240000B9FDB5CD00000000C4A3CABDA3BAB1BEDA
:10241000B5D80000C4A3CABDA3BAD2A3BFD80000D8
:102420002DE9F0410246002500260020002300246B
:10243000002791F803C00CF00F0591F803C00CF0D1
:10244000100CBCF1000F03D091F802C04CEA050556
:1024500091F800C0BCF1000F31D0146800202BE0CF
:102460004FF0010C0CFA00F3B1F800C00CEA0306BF
:102470009E4220D183004FF00F0C0CFA03F7BC43AF
:1024800005FA03FC4CEA040491F803C0BCF1280FE0
:1024900006D14FF0010C0CFA00FCC2F814C00AE09F
:1024A00091F803C0BCF1480F05D14FF0010C0CFAB4
:1024B00000FCC2F810C0401C0828D1D31460B1F849
:1024C00000C0BCF1FF0F34DD546800202EE000F1A5
:1024D000080C4FF0010808FA0CF3B1F800C00CEA40
:1024E00003069E4221D183004FF00F0C0CFA03F734
:1024F000BC4305FA03FC4CEA040491F803C0BCF1A8
:10250000280F05D100F1080C08FA0CF8C2F8148065
:1025100091F803C0BCF1480F07D100F1080C4FF04F
:10252000010808FA0CF8C2F81080401C0828CED325
:102530005460BDE8F0810000F0B50A460023002495
:102540000021002500F00046B6F1004F02D11D4EDB
:10255000F16901E01B4E7168C0F3034583B200F4DA
:102560004016B6F5401F08D121F07061154E76680F
:1025700026F07066134F7E6012E000F48016B6F508
:10258000801F06D1032606FA05F4A14341F07061CD
:1025900006E0460D360103FA06F6B14341F07061DC
:1025A00022B1460D360103FA06F6314300F000462B
:1025B000B6F1004F02D1034EF16101E0014E7160AE
:1025C000F0BD0000000001400246002093680B406F
:1025D0000BB1012000E000207047416170470161AC
:1025E0007047000008B501211C2000F0DBFF4FF40C
:1025F0000050ADF8000014208DF8030003208DF882
:10260000020069461748FFF70BFF4FF400511548C9
:10261000FFF7E5FF0120ADF8000069461248FFF71B
:10262000FFFE01211048FFF7DAFF10208DF80300AC
:102630000220ADF8000069460B48FFF7F1FE0221C9
:102640000948FFF7CAFF4FF46040ADF80000694643
:102650000548FFF7E5FE4FF460410348FFF7BDFF73
:1026600008BD000000100140000C014000BFFEE763
:1026700008B50121082000F095FF8020ADF800008A
:1026800048208DF8030069461748FFF7C9FE8021EE
:102690001548FFF7A4FF0121082000F083FF4FF445
:1026A0008070ADF8000048208DF8030069460E48A0
:1026B000FFF7B6FE4FF480710B48FFF790FF012142
:1026C000082000F06FFF4FF40070ADF800004820C4
:1026D0008DF8030069460448FFF7A2FE4FF400712D
:1026E0000148FFF77CFF08BD000C014010B5002039
:1026F000FFF714FA694908700846007800B910BD60
:1027000067480078022809D164480078032804D17A
:1027100000206349087000F041FDF0E76048007850
:1027200088B95E48007802280DD15E480078401CC8
:102730005C49087008460078022801DD0020087016
:1027400000F02CFDDBE757480078012800D1D6E7E0
:1027500053480078012871D150480078012804D0EE
:10276000022813D003287ED146E04F480078401C51
:102770004D49087008460078062804DD00204849C5
:1027800008704949087000F009FD6CE0464800787F
:1027900007282FD2DFE800F02E040D161C22280097
:1027A0004FF07E514148006801F0C4FE3F49086087
:1027B00020E04FF07E513E48006801F0BBFE3C49EE
:1027C000086017E03B480078401C3A49087011E067
:1027D00039480078401C384908700BE037480078C9
:1027E000401C3649087005E035480078401C3449E3
:1027F000087000BF00BF36E02B480078072830D2B1
:10280000DFE800F02F040D161D2329004FF07E5144
:102810002648006802F03CF92449086021E04FF0A6
:102820007E512348006802F033F92149086018E01E
:1028300020480078401E1F49087012E015E01E482D
:102840000078401E1C4908700BE01C480078401EB0
:102850001A49087005E01A480078401E18490870A7
:1028600000BF00BF00BF00BF49E70C480078012847
:1028700002D003280ED107E00120094908700A4957
:10288000087000F08BFC05E002200549087000F09C
:1028900085FC00BF00BF00BF31E700000000002042
:1028A0000800002009000020010000201000002086
:1028B0001400002018000020190000201A00002039
:1028C0001B00002008B50121084600F06BFE012125
:1028D0001648FFF731FE1648406820F020001449E2
:1028E00048600121042000F05DFE4FF40060ADF867
:1028F000000010208DF8030003208DF802006946C7
:102900000C48FFF78DFD0121042000F04BFE4FF431
:102910008070ADF8000048208DF8030003208DF88A
:10292000020069460348FFF77BFD08BD0002300046
:10293000002004E00008014008B50121084600F02D
:1029400031FE01211648FFF7F7FD1648406820F0D8
:102950002000144948600121042000F023FE4FF4B8
:102960000060ADF8000010208DF8030003208DF802
:10297000020069460C48FFF753FD0121042000F0D6
:1029800011FE4FF48070ADF8000010208DF80300A8
:1029900003208DF8020069460348FFF741FD08BD9A
:1029A00000023000002004E00008014010B50020C3
:1029B0000A490860FFF7C0FF00200949C1F8A001DB
:1029C0000220FFF77BFA0120044908600220FFF78C
:1029D00075FA00200249C1F8AC0110BDAC012142DA
:1029E0000000214210B500200A490860FFF7A4FF4B
:1029F00001200949C1F8A0010220FFF75FFA012078
:102A0000044908600220FFF759FA00200249C1F882
:102A1000AC0110BDAC0121420000214270B5054659
:102A20000024FFF74FFF002616E000200F49086042
:102A30000220FFF743FA01200D49C1F8AC016006FE
:102A4000040E0A488C38006808B1601CC4B201202A
:102A5000FFF734FA701CC6B2082EE6DB15B9FFF793
:102A6000C1FF01E0FFF7A2FF204670BDAC0121428B
:102A70000000214270B50446FFF75EFF00200F49B9
:102A80000860002517E0E0090C490C390860600671
:102A9000040E0220FFF712FA01200949C1F8AC0127
:102AA0000220FFF70BFA0020044908600220FFF71C
:102AB00005FA681CC5B2082DE5DB70BDAC012142EA
:102AC0000000214210B5FFF737FF012009490860D7
:102AD0000949C1F8AC010420FFF7F0F900200549CD
:102AE00008600420FFF7EAF900200349C1F8AC01AF
:102AF00010BD0000A00121420000214210B5FFF7E7
:102B00001BFF0020084908600849C1F8A001042003
:102B1000FFF7D4F90120044908600449C1F8A00175
:102B20000420FFF7CBF910BDAC0121420000214287
:102B300010B50024FFF7C6FE01200E490860FFF71C
:102B4000BDF901200C49C1F8AC01FFF7B7F907E066
:102B5000601CC4B2FA2C03DDFFF7D0FF012010BDCA
:102B60000448803800680028F2D102490C3108601E
:102B700000BFF4E7A00121420000214270B50446E5
:102B80000025FFF79FFFAE20FFF774FFFFF7D0FF90
:102B90002046FFF76FFFFFF7CBFFFFF793FFAF2054
:102BA000FFF768FFFFF7C4FF0020FFF737FF054678
:102BB000FFF7A4FF284670BD70B505460C46FFF729
:102BC00081FFAE20FFF756FFFFF7B2FF2846FFF761
:102BD00051FFFFF7ADFFFFF775FFAF20FFF74AFF8B
:102BE000FFF7A6FF0120FFF719FF20700120FFF774
:102BF00015FF60700120FFF711FFA0700120FFF7A3
:102C00000DFFE0700120FFF709FF20710020FFF7A2
:102C100005FF6071FFF772FF70BD70B505460C4689
:102C2000FFF750FFAE20FFF725FFFFF781FF284693
:102C3000FFF720FFFFF77CFF2046FFF71BFFFFF7A2
:102C400077FFFFF75BFF0120FFF712F970BD00BFB0
:102C5000FEE700002DE9F041C14800680521B0FB06
:102C6000F1F201FB120078B9BE48007802280BD0BF
:102C7000FEF7ECFFBC49088001F0D0F9BB490870B1
:102C800001F0C4F9BA490870B6480078022876D035
:102C9000B4480078012872D0B348B0F9000001F0C0
:102CA00099FD8046B34901F0B3FC0746B24801687C
:102CB000384601F0BBFE05D3B0480168384601F044
:102CC000B5FD01D2012000E000200446A7480078AD
:102CD000AB490978884205DCA4480078A9490978FD
:102CE000884201DA012000E000200546A048007873
:102CF000A5490978884205DC9D480078A3490978F0
:102D0000884201DA012000E000200646A048007851
:102D100002282DD074B198480168384601F086FE2B
:102D200001D29CA000E09EA0804642469FA1A348FD
:102D300001F02EF86DB18D480078914909788842EC
:102D400001DD9FA000E0A1A0024698A19B4801F0F0
:102D50001FF86EB1864800788B490978884201DDFA
:102D60009DA000E09FA0024690A1944801F010F8B9
:102D70009F4804709F4805709F48067000BF7848C0
:102D800000680A21B0FBF1F201FB120000287FD19C
:102D90007448007802287BD072480078012843D11B
:102DA00096480078072839D2DFE800F03804101C74
:102DB000232A31007048006801F090FB0446224647
:102DC0000B468FA17D4800F0E3FF2CE06B480068C4
:102DD00001F084FB044622460B468FA1774800F0A1
:102DE000D7FF20E06648027891A1744800F0D0FF38
:102DF00019E06448027894A1704800F0C9FF12E01D
:102E00006148027896A16D4800F0C2FF0BE05F4870
:102E1000027899A1694800F0BBFF04E09CA16748D3
:102E200000F0B6FF00BF33E04F48B0F900000A21C0
:102E300090FBF1F201FB12044B48B0F9000090FB4B
:102E4000F1F523462A4698A15C4800F0A1FF4748C7
:102E5000027899A1594800F09BFF4548027899A152
:102E6000564800F095FF4A48007820B998A1534889
:102E700000F08EFF0CE046480078012804D197A1AD
:102E80004E4800F085FF03E097A14C4800F080FF1A
:102E900000F002FE002860D196A19748FDF742FBA2
:102EA00088B13B480078401C3949087008460078D2
:102EB000022801DD0020087000202A4908704F49CF
:102EC000087000F06BF98DA18B48FDF72BFB30B338
:102ED00024480078022811D100202249087000F00F
:102EE0005DF90020864908608649C1F880014249A1
:102EF0000870404908703E49087010E002201949E6
:102F0000087000F04BF900207D4908607D49C1F848
:102F100080013949087037490870354908701C48E4
:102F20000078012817D178A17348FDF7FBFA10B19A
:102F30004220FEF72DFD75A16F48FDF7F3FA10B1A1
:102F40004320FEF725FD72A16B48FDF7EBFA10B1A7
:102F50004420FEF71DFD00F06BFDBDE8F081000090
:102F600004000020080000200A0000200C000020BF
:102F70000D0000200000204110000020140000205F
:102F800018000020190000201A0000201B0000205B
:102F900009000020CCE5CEC2B9FDB8DF000000007A
:102FA000CCE5CEC2B9FDB5CD00000000A1BEB1A8F0
:102FB000BEAFA1BF2573A3A10D0A000000380140D8
:102FC000D0C4C2CAB9FDBFEC00000000D0C4C2CA60
:102FD000B9FDC2FD00000000D1AAD1F5B9FDB8DFEE
:102FE00000000000D1AAD1F5B9FDB5CD0000000068
:102FF0001C0000201D0000201E00002001000020F9
:103000005BC9E8D6C35D20CCE5CEC2C9CFCFDE3ADE
:1030100020252E31660D0A005BC9E8D6C35D20CCA1
:10302000E5CEC2CFC2CFDE3A20252E31660D0A0092
:103030005BC9E8D6C35D20D0C4C2CAC9CFCFDE3ACF
:103040002025640D0A0000005BC9E8D6C35D20D0CE
:10305000C4C2CACFC2CFDE3A2025640D0A000000E8
:103060005BC9E8D6C35D20D1AAD1F5C9CFCFDE3A7E
:103070002025640D0A0000005BC9E8D6C35D20D19D
:10308000AAD1F5CFC2CFDE3A2025640D0A00000098
:103090005BC9E8D6C35D20B5C8B4FDD1A1D4F12E7B
:1030A0002E2E0D0A00000000CCE5CEC23A25642E7B
:1030B00025640D0A00000000D1AAD1F53A25640D5F
:1030C0000A000000D0C4C2CA3A25640D0A000000FC
:1030D000C4A3CABD3AB1BEB5D80D0A00C4A3CABDC7
:1030E0003AD2A3BFD80D0A00C4A3CABD3AB4FDBBEF
:1030F000FA0D0A0041000000B8030020450000005E
:1031000084812142008021424200000043000000EF
:10311000440000007047000070B5002100230F221A
:10312000C47804B3154C246804F4E064C4F5E06486
:10313000210AC1F10403CA40447804FA03F18478F7
:103140001440214309010E4C0678A155047804F07F
:103150001F050124AC4005786D11AD0005F1E02597
:10316000C5F8004109E0047804F01F050124AC40D3
:10317000044D0678761145F8264070BD0CED00E050
:1031800000E400E080E100E002490143024A1160EE
:10319000704700000000FA050CED00E070B5002457
:1031A00015E004F1B001C8B200F0CAF9012000F046
:1031B000C7F9102000F0C4F9002504E0002000F059
:1031C000CFF9681CC5B2802DF8DB601CC4B2082C96
:1031D000E7DB70BD00BF011EA0F10100FBD170470D
:1031E00000B501200B4908601420FFF7F3FF012010
:1031F0000949C1F898011420FFF7ECFF00200549A8
:10320000091D08601420FFF7E5FF00200249C1F8FE
:10321000940100BD948121420080214200B500202C
:10322000074908601420FFF7D5FF01200549C1F8C0
:1032300094011420FFF7CEFF01200149086000BD72
:10324000988121420080214208B50121082000F028
:10325000A9F90121082000F0A5F92020ADF800000F
:1032600010208DF8030003208DF8020069463248D3
:10327000FFF7D6F84020ADF8000010208DF80300CD
:1032800003208DF8020069462B48FFF7C9F8AE20ED
:1032900000F056F9202000F053F9102000F050F90A
:1032A000B02000F04DF9C82000F04AF9022000F0EB
:1032B00047F9102000F044F9402000F041F9812046
:1032C00000F03EF97F2000F03BF9A12000F038F932
:1032D000A62000F035F9A82000F032F93F2000F0D8
:1032E0002FF9A42000F02CF9D32000F029F90020B8
:1032F00000F026F9D52000F023F9F02000F020F9A5
:10330000D92000F01DF9222000F01AF9DA2000F08F
:1033100017F9122000F014F9DB2000F011F9202039
:1033200000F00EF98D2000F00BF9142000F008F9E0
:10333000AF2000F005F908BD000C014070B505464E
:103340000C4605F1B001C8B200F0FAF8102141EACC
:10335000141000F0F5F804F00F0141F0010000F046
:10336000EFF870BD2DE9F041074688461646781EF5
:103370004006070E4FEA08704FEA106846E0002545
:103380003CE005EB0510244911F810003178884223
:1033900032D105EB0510204901EB400040787178EF
:1033A000884229D141463846FFF7C8FF00240AE089
:1033B00005EB0511184A02EB4101891C085D00F07C
:1033C000CFF8601CC4B2102CF2DB791CC8B24146A5
:1033D000FFF7B4FF00240CE005EB05110E4A02EBE9
:1033E0004101891C04F11002885C00F0B9F8601CEE
:1033F000C4B2102CF0DB03E0681CC5B2642DC0DB46
:1034000000BFB61C08F1100000F0FF08307800285B
:10341000B5D1BDE8F08100006E5100082DE9F04102
:1034200006468846174600250024A7F12005414698
:103430003046FFF783FF00BF06E004EB05110D4A9D
:10344000505C00F08DF8641C082CF6D3711CC8B2D7
:103450004146FFF773FF002407E004EB0511083134
:10346000044A505C00F07CF8641C082CF5D3BDE8DD
:10347000F08100007E4B00082DE9F04105460C4626
:1034800016460027681E4006050EE006040E0DE0F5
:10349000F25D21462846FFF7C1FF04F10800C4B2DF
:1034A000782C02DD0024A81CC5B27F1CF05D00282A
:1034B000EED1BDE8F081000070B5044600251EE0A5
:1034C00004F0800018B101201A49086002E00020D1
:1034D000184908601420FFF77DFE01201549091FD7
:1034E00008601420FFF776FE00201349C1F894010C
:1034F0001420FFF76FFE6006040E681CC5B2082D8D
:10350000DEDB01200B4908601420FFF763FE012079
:103510000949C1F894011420FFF75CFE20210748F7
:10352000FFF752F8064600200249091F086030469E
:1035300070BD00009881214200802142000C0140B2
:1035400010B50446FFF74CFE7820FFF7B5FF0020CA
:10355000FFF7B2FF2046FFF7AFFFFFF75FFE10BD9A
:1035600010B50446FFF73CFE7820FFF7A5FF40208A
:10357000FFF7A2FF2046FFF79FFFFFF74FFE10BDAA
:103580007047000029B1064AD2690243044BDA6150
:1035900004E0034AD2698243014BDA6170470000BC
:1035A0000010024029B1064A92690243044B9A6115
:1035B00004E0034A92698243014B9A61704700001C
:1035C0000010024030B500210022002400232D4DC0
:1035D0006D6805F00C0121B1042905D0082923D11B
:1035E00005E0294D056022E0274D05601FE0254DCF
:1035F0006D6805F47012234D6D6805F48034022562
:1036000005EB92421CB9214D554305600BE01D4D61
:103610006D6805F400351DB11C4D5543056002E091
:10362000194D5543056002E0174D056000BF00BF0E
:10363000144D6D6805F0F0010909154D6B5C0568C6
:10364000DD4045600F4D6D6805F4E061090A104DDD
:103650006B5C4568DD4085600A4D6D6805F460511E
:10366000C90A0B4D6B5C4568DD40C560054D6D6852
:1036700005F44041890B074D6B5CC568B5FBF3F55C
:10368000056130BD0010024000127A0000093D00C3
:103690006200002072000020704710B500F002F8B0
:1036A00010BD00000CB50020019000903348006868
:1036B00040F480303149086000BF3048006800F4B1
:1036C000003000900198401C0190009818B90198B2
:1036D000B0F5A06FF1D12948006800F4003010B1B6
:1036E0000120009001E0002000900098012843D1C3
:1036F0002348006840F0100021490860084600682F
:1037000020F0030008600846006840F002000860EE
:103710001A484068194948600846406848600846A9
:10372000406840F4806048600846406820F47C109F
:1037300048600846406840F4E81048600846006861
:1037400040F08070086000BF0C48006800F0007016
:103750000028F9D00948406820F003000749486074
:103760000846406840F00200486000BF03484068D7
:1037700000F00C000828F9D10CBD00000010024038
:1037800000200240042808D14FF0E021096941F0EF
:1037900004014FF0E022116107E04FF0E0210969D8
:1037A00021F004014FF0E0221161704770470000E2
:1037B00010B51348006840F0010011490860084640
:1037C0004068104908400E494860084600680E49A4
:1037D00008400B4908600846006820F48020086013
:1037E0000846406820F4FE0048604FF41F008860DF
:1037F000FFF753FF4FF000600449086010BD000060
:10380000001002400000FFF8FFFFF6FE08ED00E0A8
:1038100010B50121880700F09EF800284BD0012147
:10382000880700F089F82448007801280FD1234840
:103830000088401C2149088008460088B0F5967F22
:103840000ADB0020088001201D49087004E00020E8
:103850001A4908801A4908701A48007801280ED1C0
:1038600019480088401C18490880084600886428C8
:1038700008DB0020088001201449087002E00020C5
:103880001149088012480088401C114908800846E8
:1038900000880A2801DB002008800D4800880D49B7
:1038A000B1F90010884203DA01200B49086002E0F8
:1038B00000200949086010BD420000204800002097
:1038C00043000020460000204C000020470000205C
:1038D0004A00002044000020B48121427FB5054603
:1038E0000C4601210846FFF74DFEADF80850ADF833
:1038F00004400020ADF80A00ADF8060001A94FF021
:10390000804000F043F801221146900700F034F89F
:103910001C208DF8000000208DF8010003208DF898
:10392000020001208DF803006846FFF7F5FB012136
:10393000880700F004F87FBDCA430282704721B1B6
:10394000028842F00102028004E002884FF6FE7312
:103950001A400280704730B5024600200023002440
:10396000158A05EA0103958905EA010413B10CB132
:10397000012000E0002030BD1AB183890B43838110
:1039800002E083898B438381704700000022028814
:103990001D4B98420ED01D4B98420BD0B0F1804F7A
:1039A00008D01B4B984205D01A4B984202D01A4BB4
:1039B000984204D14FF68F731A404B881A43174B25
:1039C000984207D0164B984204D04FF6FF431A4056
:1039D000CB881A4302808B8883850B8803850A4B2A
:1039E00098420BD0094B984208D00E4B984205D014
:1039F0000D4B984202D00D4B984201D10B7A0386B1
:103A00000123838270470000002C014000340140F4
:103A10000004004000080040000C0040001000407E
:103A200000140040004001400044014000480140B3
:103A300010B54FF480710348FCF786FD0020024961
:103A4000088010BDB80300205A00002010B540F2D5
:103A500025510E4800F082F8B0B10D480088FF28CB
:103A600002D900200A4908800848001D0088C1B218
:103A7000074802880088401C054B1880054881547F
:103A80002021024800F048F810BD00000038014035
:103A90005A000020B80300200A48008808B9012015
:103AA00070470848008808490988884203D10020E7
:103AB00004490880F4E7034800880349088001208E
:103AC000EEE700005A0000205C00002010B540F234
:103AD00025510E4800F042F8B0B10D480088FF288B
:103AE00002D900200A4908800848001D0088C1B298
:103AF000074802880088401C054B188005488154FF
:103B00002021024800F008F810BD000000440040E9
:103B10005E000020B804002001F40072B2F5007FBE
:103B200000D100BFCA430280704721B1828942F4AC
:103B30000052828104E082894DF6FF731A4082812F
:103B4000704702460020B1F5007F00D100BF138806
:103B50000B400BB1012000E00020704770B5024619
:103B6000002400230025002040F66A16B14200D14F
:103B700000BFC1F3421501F01F03012606FA03F34B
:103B8000012D02D19689334006E0022D02D1168A1A
:103B9000334001E0968A33400C12012606FA04F401
:103BA0001688344013B10CB1012000E0002070BD34
:103BB000F0B50346002400260025002040F66A17D1
:103BC000B94200D100BF1846C1F3421401F01F06EC
:103BD000012707FA06F5012C01D10C3004E0022C74
:103BE00001D1103000E014301AB107682F4307608C
:103BF00002E00768AF430760F0BD00002DE9F04721
:103C000086B005460E460024A24600BFA146002706
:103C1000B08900B100BF2F462C8A4CF6FF700440DB
:103C2000F08804432C82AC894EF6F3100440B0882F
:103C300031890843718908430443AC81AC8A4FF64B
:103C4000FF400440B0890443AC8201A8FFF7BAFCEE
:103C50001F48874202D1DDF810A001E0DDF80CA07A
:103C6000A88900F4004040B10AEBCA0000EB0A103A
:103C700031684900B0FBF1F807E00AEBCA0000EB3D
:103C80000A1031688900B0FBF1F86420B8FBF0F04D
:103C900004012009642101FB1089A88900F4004077
:103CA00040B1322000EBC900B0FBF1F000F007009A
:103CB000044308E0322000EB09106421B0FBF1F06E
:103CC00000F00F0004432C8106B0BDE8F08700002F
:103CD00000380140C1F308028280704700BFFEE750
:103CE00010B586B0044601210420FFF75BFC0121DA
:103CF0008803FFF757FC18208DF817004FF4007069
:103D0000ADF8140003208DF8160005A91E48FEF733
:103D100087FB04208DF817000002ADF81400032083
:103D20008DF8160005A91848FEF77AFB25208DF8B6
:103D3000000001208DF8030000208DF80100032011
:103D40008DF802006846FFF7E7F901940020ADF80E
:103D500010000C20ADF80E000020ADF80C00ADF8FE
:103D60000A00ADF8080001A90848FFF747FF012243
:103D700040F225510548FFF71BFF01210348FFF7DB
:103D8000D4FE06B010BD000000080140003801401C
:103D90000FB430B5CBB0054601AC50A800904FF43D
:103DA000947101A8009B4F9AFCF764FA00200090E0
:103DB0000BE014F8011B2846FFF78CFF00BF4021E1
:103DC0002846FFF7BEFE0028F9D020780028F0D161
:103DD0004BB030BC5DF814FB490050EAC12018BF5D
:103DE00004204A0D18BF40F0010040F2FF72B2EB10
:103DF000515F08BF40F00200012808BF052070474E
:103E000030380A2801D20120704700207047000096
:103E10002DE9F04F8FB04FF00008DFF8C4B100205B
:103E20000E9058460D9000200C900B9000270990A2
:103E3000089007900690002425E06A4B1B882344D5
:103E40004FF0640C93FBFCFE0CFB1E339AB2664BE6
:103E500053F82200654B53F82210404500D98046A4
:103E6000584500D283460E9B994200D90E910D9B76
:103E7000994200D20D910C9B03440C930B9B0B4475
:103E80000B93601C84B2642CD7DB64210C98B0FBCC
:103E9000F1F50B98B0FBF1F9A8EB0B06DDE90D107D
:103EA000A0EB010AB5F57A7F08D3B9F5FA7F05D3FF
:103EB0000A2E03D34A480F38804507D300204C49C7
:103EC00008704C4908700FB0BDE8F08F05EB960004
:103ED0000A90002424E0434A12882244642392FB7F
:103EE000F3FC03FB1C2291B23F4A52F821000A9ACC
:103EF00090420FD9069A8AB91FB1079AA21A062AC8
:103F00000CDB0122069207B90994089407947A1CE5
:103F100097B203E0A84201D200220692601C84B24C
:103F2000642CD8DB022F0FDBDDE90823D11A7A1EBF
:103F300040F2DC535A43B2FBF1F0282803D3C828DF
:103F400001D82B4B187000BFBAF1000F45D0EEB36B
:103F5000304600F057FC0190484600F053FC0090BA
:103F6000019900F097FC0390284600F04BFC01906B
:103F7000504600F047FC0090019900F08BFC029045
:103F8000039900F045FB05901B48059900F082FC61
:103F900002901A48059900F07DFC0090059900F008
:103FA00079FC0190029900F0C5FA1549039000F0E0
:103FB000C1FA04901349049800F038FD01D2114869
:103FC00004901149049800F031FD00E005E004D8A8
:103FD000049800F0DFFB0749087000BF73E700009A
:103FE000FFFF03004E000020980000202802002060
:103FF0005400002055000020FED4F241713D34C22F
:10400000A4B0BD420000C8420000484210B500F014
:10401000BFF80148007810BD5500002010B500F031
:10402000B7F80148007810BD540000204FF4A0609C
:10403000FFF7AAF8FDF7FAFEFEF7D4FAFEF718FB31
:10404000FFF702F9FFF7AAF84FF41650FFF748FE02
:1040500041F61F416320FFF741FC00BFFDF73CFE26
:104060000028FBD100F03BF822E0FDF7EFFD1149FD
:104070000880FFF7D3FF10490870FFF7C7FF0F490B
:104080000870FEF733FBFEF7E5FDFDF739FCFDF7A1
:104090003BFF0B48006841F28831884203D300207F
:1040A0000749086004E006480068401C04490860AD
:1040B000DBE700000A0000200C0000200D000020BB
:1040C0000400002070B50420FEF758FD04460620C9
:1040D000FEF754FD0546601B00F01F0070BD10B5D3
:1040E00040210920FEF799FD0A20FDF7C1FE0021BD
:1040F0000220FEF792FD00210320FEF78EFD002135
:104100000420FEF78AFD00210520FEF786FD002130
:104110000620FEF782FD5F210820FEF77EFD0321C9
:104120000920FEF77AFD27210A20FEF776FD2421DB
:104130000C20FEF772FD24210D20FEF76EFD0020FD
:10414000FEF71CFD0120FEF719FD10BD7CB50446ED
:104150000D4669460720FEF72FFD9DF8000000047C
:104160009DF8011040EA01209DF802100843C0F3B9
:10417000110020609DF8030000049DF8041040EA3F
:1041800001209DF805100843C0F3110028607CBD94
:104190001CB5FFF797FF044628E0694601A8FFF722
:1041A000D5FF1C491C4A1288009841F822001B4880
:1041B000194A1288019940F8221017480088401CBB
:1041C000642190FBF1F201FB1200134908801448AE
:1041D0000088642804DA12480088401C10490880CE
:1041E00010480088401C0F49088000BF201EA4F121
:1041F0000101CCB2D1DC0A480088642808DB0948F8
:104200000088192804DBFFF703FE00200549088019
:104210001CBD0000980000204E0000202802002055
:10422000500000205200002010B500290AD0087864
:10423000002807D005487844FCF752FF002801D039
:10424000002010BD0248784410BD00009214000008
:104250008A14000010B500290AD00878002807D079
:1042600005487844FCF73CFF002801D0002010BD31
:104270000248784410BD0000821400007A14000047
:104280004FEA41034FEA5353A3F58063D3F11E0372
:10429000C8BFD3F1210C0CDD4FF0004242EAC1222D
:1042A00042EA505232FA03FC8CEAE17CACEBE1705A
:1042B0007047102BC4BF0020704703F5787CBCF119
:1042C000FF3F04D06FF0004282EA2100704770B5D2
:1042D00000F0B0F84992248000207047F2E7000017
:1042E000DFF848C170B51CEA111E1EBF1CEA131589
:1042F0009EEA0C0F95EA0C0F00F06F8081EA030430
:1043000023EA4C134EEAD47E21EA4C1141F4801189
:1043100043F48013AE44A1FB024CA0FB0365AEF155
:104320007F7E361955EB0C05A1FB034C4CF10003C5
:10433000A0FB021C16EB0C06654153F10003094279
:1043400018BF46F0010613F4007F0BD14FEA03318A
:104350004FEA0530340341EA155140EA16506FF038
:1043600003020AE04FEAC3214FEAC520F40241EA02
:10437000555140EA56506FF0020202EB2E4201EB1B
:10438000025585EACE710AD05FEA440C18BF24F0CA
:10439000004450F1000041F1000120EAD47040F2E5
:1043A000FE7C624500D270BDA84214BF4FF080442D
:1043B0004FF04044002E08BF0024BEF1806FA8BF1C
:1043C000A1F1C041BDE8704080F282804FF0000052
:1043D00001F1C04101F0004170479EEA0C0F0CEA68
:1043E000131518BF95EA0C0F06D04FF0000081EAB4
:1043F000030E0EF0004170BD00F01CF88900013E74
:1044000000F007B800F009B84FEA430C5FEA5C5CC3
:1044100008D081EA030100F05BB84FEA410C5FEA83
:104420005C5CF6D14FF00000014970470000FF07C7
:104430000000F87F0EF1020E2EF0030E5EF8046B02
:10444000364205D4012A43EB030515F5001F12D8A7
:10445000012841EB010C1CF5001F0CD80ED14FEACE
:10446000D17C15F5001F0CEB4C0C0CF1020C08BFB5
:104470004CEBD37C04E04FF0080C01E04FEAD37C16
:104480000CEB4C0526FA05F606F00706B6F1040C0F
:1044900006D20EEB860CBDE870404CF0010C604774
:1044A000DFE80CF0090B02024FF000414FF0000072
:1044B000A1F5002170BD19461046012851EB0104F9
:1044C00018BFD4F5001484BF002001F0004170BD76
:1044D0000808A0F500114FEA3101704743004FEA88
:1044E000D30C4FEA3C0C43401FBF40070CF1605116
:1044F00013F0FE4F70471CF0006F03D100200CF04A
:10450000004170470CF0004343EA507010B540EA98
:10451000CC0000F040FA00BF000000924FEA00011A
:10452000FFF7D6BF4FF000414FF00000A1F500218A
:104530007047000090EA010F48BF81F0004100F190
:10454000AE82421A3CBF801A89184FEAD0524FF00F
:104550007F4C1CEA410FA2EBD15318BF9CEA026FBB
:1045600000F03B804FF0004C4CEA00204CEA012167
:1045700021FA03FC10EB0C0C1ED202F1FF325FEAB1
:104580001C2040EBC25038BF70471CF07F0F4FEA31
:10459000400C18BFBCF17F4F38BF7047C3F12003F8
:1045A000994008BF20F00100BCF17F4F38BF704731
:1045B000A0F1C04000F035BA4FEA3C00000A40EBE1
:1045C000C25028BF1CF0FF0F4FEA400CE6D018BFC6
:1045D000BCF17F4F38BF7047EAE79CEA026F05D015
:1045E00010EA5C0F08BF00F00040704710B500F003
:1045F000D2F900BF64FBBE3E401058BFC0F140403E
:10460000491058BFC1F140418142EFF3008070472B
:104610004FF47F0C1CEAD0121EBF1CEAD11392EAA1
:104620000C0F93EA0C0F00F0858090EA010F48BF51
:1046300042F4807240F4000C41F400002CF07F4101
:1046400020F07F4000B58142A2EB03020FF2081C6C
:10465000ACEB504EC0F100009EF800E04FEA4E0E69
:1046600000FB0EFC38BF49004FEA2C1C02F5FA0291
:104670000CFB0EF34FEACE1E4FEA112C4FEAC1217C
:104680000EEB635E42EB22420EFB0CFC4FEA1C5326
:1046900000FB03114FEA112C4FEA01310EFB0CFC19
:1046A0004FEADC4C00FB0C11C14228BF09184CEB4F
:1046B00003335DF804EB10EB410143EBC250B2F55C
:1046C0007C0F38BF704729D512F0F00F1CBF00F1E6
:1046D000C04000F000407047008182838485868757
:1046E00088898B8C8D8E8F919293959697999A9CB1
:1046F0009D9FA0A2A3A5A7A8AAACAEB0B2B3B5B720
:10470000B9BCBEC0C2C5C7C9CCCED1D4D7D9DCDFF5
:10471000E2E6E9ECF0F3F7FAFE0000004FEA400CA5
:104720000CF1807CBCF17E4F28BF7047B0F1C040D7
:1047300000F077B990EA010F0CEAD11348BF42F4B8
:104740008072624538BF634507D213F47F0F16D0DD
:1047500080EA010000F00040704710B500F01BF93E
:10476000097EFC3E00F005B880EA010000F0004040
:10477000704780EA010000F0004000F052B912F4E6
:104780007F0F04BF0248704780EA010000F049B97A
:104790000000C07FC10DD1F19E0206DB4FEA00236D
:1047A00043F0004323FA02F07047004207D54FEA76
:1047B0004001B1F1FE4F02D24FF00000704710B53A
:1047C00000F0E9F849922480002070476FEA200049
:1047D0007047000010F0004148BF4042B0FA80F33B
:1047E00010FA03F2C3F19D030BD051EAC35101EB60
:1047F0001220530638BF704700F1010008BF20F0B7
:1048000001007047B0FA80F310FA03F2C3F19D0380
:104810000AD0D90501EB1220530638BF704700F1CA
:10482000010008BF20F001007047000050EA010CB1
:1048300000F113801CF5000F58BFBCF5000F01D428
:104840008842704707D710F5000F58BF11F5000FC9
:1048500015D488427047894270471CF5000F04D573
:10486000BCF5000FF7D5814270474FF0807C1CEB00
:10487000400F38BF1CEB410F01D28142704710B589
:1048800000F089F8922449004FF000504FF0805119
:10489000FFF7B2BE4FF47F0C1CEAD0121EBF1CEA19
:1048A000D11392EA0C0F93EA0C0F00F0478090EAC4
:1048B000010F48BF42F480724FF0004C4CEA0020D8
:1048C0004CEA012102EB0302A0FB0113A2F5000256
:1048D000002918BF43F001035B0028BF4FEA3303F0
:1048E00042EB22425FEA132C4CEBC2502EBFBCEBD2
:1048F000436FB2F57C0F70474FEA036CBCF1004F79
:1049000008BF20F00100B2F57C0F38BF70470BD50F
:1049100082F0FF0212F5803FC8BF704700F1C0402F
:10492000D8BF00F00040704700F5000C5FEA4C0C67
:1049300048BF7047B0F1C04000F073B890EA010F73
:104940000CEAD11348BF42F48072624538BF634518
:1049500004D280EA010000F00040704710B500F07A
:104960001AF800BF8900013E00F007B800F009B84E
:104970005FEA410C5FEA1C6C08D080EA010000F09D
:1049800050B85FEA400C5FEA1C6CF6D14FF0004073
:10499000A0F5800070470EF1020E2EF0030E5EF8B7
:1049A000044B244204D44FEA4102B2F17F4F11D8A4
:1049B0004FEA4003B3F17F4F0CD80ED14FEAD07CC1
:1049C000B2F17F4F0CEB4C0C0CF1020C08BF4CEB1E
:1049D000D17C04E04FF0080C01E04FEAD17C0CEBF5
:1049E0004C0324FA03F404F00704B4F1040C06D2D7
:1049F0000EEB840CBDE810404CF0010C6047DFE882
:104A00000CF0070802024FF00040A0F5800010BD36
:104A10000846420018BFD2F1807288BF00F0004003
:104A200010BDFF2141EAD050C005704751EA000C8B
:104A300000F113801CF5000F58BFBCF5000F01D426
:104A40008142704707D711F5000F58BF10F5000FCE
:104A500015D481427047894270471CF5000F04D578
:104A6000BCF5000FF7D5884270474FF0807C1CEBF7
:104A7000410F38BF1CEB400F01D28842704780EADB
:104A8000010081EA000180EA0100FFF7F8BE0000A2
:104A900090EA010F48BF81F000413FF552AD421A44
:104AA00004D882F00042A0EB020011444FEAD05239
:104AB0004FF07F4C1CEA410FA2EBD15318BF9CEA88
:104AC000026F4AD04FF0004C4CEA00204CEA012122
:104AD00021FA03FCB0EB0C0C0FD412F0FE0F36D011
:104AE0005FEA4C001DD5001240EBC25038BF704742
:104AF0001CF03F0F18BF70470BE0A2F101025FEA04
:104B00001C2040EBC25038BF70471CF07F0F18BF0D
:104B10007047C3F12003994014BF401E20F00100EC
:104B2000704780084FEA122308BF7047B0FA80FC34
:104B3000A2EB0C02CCF1280C60FA0CF093EA122FD5
:104B400004BF00EBC25070474FEAC3707047130AAE
:104B50005FEADC1008BF7047F6E79CEA026F04D0FA
:104B600010EA5C0F08BF0020704710B5FFF713FF75
:104B700040DFF63E81F000407047FBF78BBE00003F
:104B80000000000000000000000000000000000025
:104B900000F80000000000000033300000000010AA
:104BA0000C06100C0600000000000000000040C0D1
:104BB0007840C0784000043F04043F0404000070C3
:104BC00088FC08300000001820FF211E0000F008BB
:104BD000F000E018000000211C031E211E0000F060
:104BE0000888700000001E212324192721101016A8
:104BF0000E000000000000000000000000000000A7
:104C000000E0180402000000000718204000000225
:104C10000418E00000000040201807000000404099
:104C200080F0804040000202010F010202000000FB
:104C300000F0000000000101011F0101010000005F
:104C400000000000000080B07000000000000000C4
:104C5000000000000000000101010101010100004D
:104C600000000000000000303000000000000000E4
:104C7000000080601804006018060100000000E0D9
:104C800010080810E000000F102020100F00001086
:104C900010F8000000000020203F202000000070DD
:104CA00008080888700000302824222130000030D5
:104CB0000888884830000018202020110E000000CD
:104CC000C02010F8000000070424243F240000F84E
:104CD0000888880808000019212020110E0000E033
:104CE000108888180000000F112020110E000038D5
:104CF0000808C83808000000003F000000000070ED
:104D0000880808887000001C222121221C0000E075
:104D100010080810E0000000312222110F000000EE
:104D200000C0C000000000000030300000000000A3
:104D30000080000000000000806000000000000013
:104D400080402010080000010204081020004040AC
:104D500040404040400004040404040404000008EF
:104D600010204080000000201008040201000070A4
:104D700048080808F0000000003036010000C0308C
:104D8000C828E810E0000718272423140B000000AF
:104D9000C038E0000000203C23020227382008F839
:104DA000888888700000203F202020110E00C0302D
:104DB000080808083800071820202010080008F804
:104DC00008080810E000203F202020100F0008F8FD
:104DD0008888E8081000203F20202320180008F8C9
:104DE0008888E8081000203F200003000000C03041
:104DF00008080838000007182020221E020008F8C2
:104E000008000008F808203F210101213F20000888
:104E100008F8080800000020203F202000000000C3
:104E20000808F8080800C08080807F00000008F8AB
:104E300088C028180800203F20012638200008F8E4
:104E4000080000000000203F20202020300008F84B
:104E5000F800F8F80800203F003F003F200008F865
:104E600030C00008F808203F200007183F00E0107D
:104E700008080810E0000F10202020100F0008F88C
:104E800008080808F000203F210101010000E0109F
:104E900008080810E0000F18242438504F0008F8C4
:104EA000888888887000203F2000030C3020007024
:104EB0008808080838000038202121221C00180822
:104EC00008F8080818000000203F2000000008F83B
:104ED00008000008F808001F202020201F00087884
:104EE000880000C83808000007380E010000F808E4
:104EF00000F80008F800033C0700073C030008180E
:104F000068808068180820302C03032C3020083873
:104F1000C800C83808000000203F2000000010082A
:104F20000808C83808002038262120201800000072
:104F300000FE020202000000007F40404000000C22
:104F400030C000000000000000010638C000000270
:104F50000202FE000000004040407F000000000010
:104F60000402020204000000000000000000000033
:104F7000000000000000808080808080808000022F
:104F8000020400000000000000000000000000001B
:104F90008080808000000019242222223F2008F80F
:104FA000008080000000003F112020110E00000052
:104FB000008080800000000E1120202011000000E1
:104FC00000808088F800000E112020103F20000093
:104FD000808080800000001F222222221300008097
:104FE00080F0888888180020203F202000000000E2
:104FF000808080808000006B94949493600008F817
:10500000008080800000203F210000203F200080A1
:105010009898000000000020203F202000000000A1
:1050200000809898000000C08080807F000008F811
:10503000000080808000203F24022D3020000008E6
:1050400008F8000000000020203F202000008080A1
:10505000808080808000203F20003F20003F8080B3
:10506000008080800000203F210000203F200000C1
:10507000808080800000001F202020201F00808072
:1050800000808000000080FFA12020110E000000A1
:10509000008080808000000E112020A0FF80808092
:1050A00080008080800020203F212000010000003F
:1050B0008080808080000033242424241900008014
:1050C00080E0808000000000001F20200000808021
:1050D000000000808000001F202020103F208080E2
:1050E00080000080808000010E3008060100808072
:1050F0000080008080800F300C030C300F00008097
:105100008000808080000020312E0E3120008080C1
:1051100080000080808080818E70180601000080F1
:105120008080808080000021302C2221300000000F
:105130000000807C020200000000003F40400000B0
:105140000000FF00000000000000FF00000000025F
:10515000027C800000000040403F0000000000068C
:105160000101020204040000000000000000B3F589
:10517000080889EA1888000404FC040404FC000000
:10518000020100FF0186402018074080403F0000D8
:10519000CABC1010F01F10F00040E05847405060AB
:1051A000C0004022150816210000FE42424242FE85
:1051B0000000BBAF008060F807000000FF40201037
:1051C00008040000010000FF000402013F404040CD
:1051D00040407800D6D00000F010101010FF1010E2
:1051E0001010F000000000000F04040404FF040489
:1051F00004040F000000A3BA00000000000000003B
:105200000000000000000000000036360000000032
:105210000000000000000000C4A31010D0FF901494
:10522000E4AFA4A4A4AFE4040000040300FF0089D9
:105230004B2A1A0E1A2A4B888000CABD1010909073
:105240009090901010FF1010111610000020602098
:105250003F10101000030C102040F8002020000028
:10526000000000000000000000000000000000003E
:105270000000000000000000000000000000D2A3B9
:10528000404042CC00004A32222AF121312D000058
:105290000080403F408081BDA1A1BFA1A1BD810090
:1052A000BFD8101010FF9020984828090E2848A851
:1052B00018000242817F0040404242427E42424208
:1052C0004000B1BE0010101010D030FF30D01010D0
:1052D0001010000010080402090808FF080809025D
:1052E00004081000B5D8202020FF202080F880403E
:1052F000FF2010F000001030100F0808003F404061
:105300005F4244437800D0C40000800000E0020403
:105310001800000040800000100C0300003F4040D7
:105320004040407800010E00C2CA0014A444243456
:10533000AD6624940444A41400000809080809096F
:1053400009FD09090B0808090800D1AA0000F8089E
:1053500008F80C0B08F80808F800000040407F40EF
:10536000407F4040407F40407F404000D1F50824CE
:10537000236AAA2AAA6A2A2A2AEA0202000010112B
:10538000151515FF15151511100F3040F800CCE557
:10539000008060F807101010D0FFD010101000002F
:1053A000010000FF1008040B08FF080B04081000A0
:1053B000CEC21060028C0000FE9292929292FE0089
:1053C000000004047E01407E42427E427E42427ED4
:1053D0004000B9D800001011161010F0101014136E
:1053E000100000008181414121110D030D11214167
:1053F00041818100BBFA1010D0FF901000FE020224
:1054000002FE00000000040300FF0083601F000094
:10541000003F40407800D2EC00007E92929292923F
:105420009292929E80E00000088848281E08080892
:105430000808FE0808080800B3A3201808EAACA86A
:10544000A8AFA8A8ACEA0828180000003E02020293
:1054500002FF020212221E000000B2CE002020A88D
:105460006C2A3928A82A6CA820200000028281908A
:10547000924A49452422100801020200CAFD9052B6
:105480003410FF10345280708F0808F80800829A98
:10549000566322528E008040330C33408000CFC2CE
:1054A000020202020202FE02024282020202020022
:1054B000000000000000FF000000000106000000E6
:1054C000C9CF000000000000FF40404040404000C5
:1054D00000004040404040407F404040404040400D
:1054E0004000CFDE00FE225A8600FE9292929292F7
:1054F000FE00000000FF04080700FF4020030C141A
:1055000022414000B9FD404042CC000848880808CC
:1055100008FF080808000040201F20404041404884
:10552000504F40404000B5CD008060F80700FC843B
:105530008484FE8283828000010000FF0000FF401F
:105540002000418E3040F800B8DF04040404F494D5
:1055500095969494F4040404040000FE02027A4A2E
:105560004A4A4A4A7A0282FE0000BFEC00E000FF8D
:105570001020080808FF0808F8000000010000FFDC
:10558000008141310D030D3141818100C2FDF000E8
:10559000FF0810C05F55D555D5555FC0000000000D
:1055A000FF0080834A5A2B2A2B5A4A838000B4FD7D
:1055B000001088C433404848487F48C848484000E5
:1055C000020100FF00020A320242827F0202020050
:1055D00004000008000000000000000200010000BC
:1055E00010000000000000000000000030313233E5
:1055F0003435363738394142434445464030580007
:105600003031323334353637383961626364656638
:105610004030780002400000000000A000000000C0
:1056200005400000000000C8000000000C40000021
:105630000000409C00000000194000000020BCBE9B
:105640000000000034400000BFC91B8E00000004B1
:10565000B5400000504BCFD06607E2CF01000000FC
:105660006C4100003E8251AADFEEA7340100000029
:10567000D9420000DCB5A0E23A301F97FFFFFFFFE0
:10568000B4450000FD25A0C8E9A3C14FFFFFFFFFFF
:10569000FF3F00000000008000000000FF3F00000E
:1056A0000000008000000000F45700080000002007
:1056B00078000000280100086C58000878000020DD
:1056C000A00B0000440100081C0000004300000083
:1056D000F8FFFFFF0C0000000E0000000F000000AC
:1056E0002E0000001001000043000000F8FFFFFF43
:1056F00000404040404040404040414141414140E5
:105700004040404040404040404040404040404099
:105710004005020202020202020202020202020228
:10572000022020202020202020202002020202022D
:105730000202909090909090101010101010101085
:105740001010101010101010101010100202020291
:1057500002028888888888880808080808080808D5
:1057600008080808080808080808080802020202D1
:1057700040000000000000000000000000000000E9
:105780000000000000000000000000000000000019
:105790000000000000000000000000000000000009
:1057A00000000000000000000000000000000000F9
:1057B00000000000000000000000000000000000E9
:1057C00000000000000000000000000000000000D9
:1057D00000000000000000000000000000000000C9
:1057E00000000000000000000000000000000000B9
:1057F00000000000000000000000000000020000A7
:105800004B6200000000184200000C427850643CDB
:1058100000000000000000000000000001FFFF0089
:1058200000A24A040000000000000000010203047E
:105830000607080901000100000000000000000048
:105840000000000000000000000000000000000058
:10585000000000000000000000000102030401023B
:0C58600003040607080902040608000003
:04000005080000ED02
:00000001FF
